:100000006F70403A1300000013000000130000005E
:100010001300000013000000130000001300000094
:100020001300000013000000130000001300000084
:08003000130000007300100032
:1000380000000000000000005C7200006C7200000C
:1000480000000000EA72000000000000000000004C
:10005800EC720000EE7200000000000000000000DA
:10006800F072000000000000F272000000000000C2
:10007800F4720000F6720000F8720000FA720000D4
:10008800FC720000FE72000016650000CA650000E0
:100098007E66000032670000E66700000A73000011
:1000A8000C7300000E730000107300001273000040
:1000B8001473000016730000187300001A73000010
:1000C8001C7300001E730000207300009A68000073
:1000D80024730000E46A0000287300002A730000FB
:1000E800A46B00005C6C00001C6D00003273000003
:1000F8003473000036730000387300003A73000050
:100108003C730000225E0000E65E0000AA5F00006B
:10011800B269000046730000487300004A7300008B
:10012800247000004E7300005073000052730000EA
:100138005473000056730000DC6D00005A73000011
:100148007260000036610000A06E00005C6F000065
:100158006473000066730000687300006A7300002F
:100168006C7300006E7300007073000072730000FF
:10017800747300007673000078730000C291000069
:100188007C7300007E73000046640000F861000084
:10019800BC6200008663000088730000E470000001
:1001A8008C7300008E73000090730000A47100002F
:1001B8009473000096730000987300009A7300000F
:1001C8009C7300009E730000A0730000A2730000DF
:1001D8000000000000000000000000000000000017
:1001E8000000000000000000000000000000000007
:0801F8000000000000000000FF
:100200003D432A876373C3029377F700BDEFADE5E3
:10021000937606FF3D8ABA960CC34CC30CC74CC7F5
:100220004107E36BD7FE11E28280B306C3408A0622
:100230009702000096966780A6002307B700A306E2
:10024000B7002306B700A305B7002305B700A30432
:10025000B7002304B700A303B7002303B700A3022A
:10026000B7002302B700A301B7002301B700A30022
:10027000B7002300B700828093F5F50F93968500B1
:10028000D58D93960501D58D61B79396270097027A
:10029000000096968682E78086FA9680C1171D8FA9
:1002A0003E96E374C3F8A5B73367B500FD530D8BD5
:1002B00079E7B7877F7F9387F7F710419441B3724F
:1002C000F6003363F600BE92B3E262006397720CED
:1002D0006318D6065041D441B372F6003363F6007A
:1002E000BE92B3E262006398720A631BD6041045A3
:1002F0009445B372F6003363F600BE92B3E2620037
:100300006391720A631ED6025045D445B372F6005B
:100310003363F600BE92B3E26200639A720863111F
:10032000D60210499449B372F6003363F600BE92C8
:10033000B3E26200639372085105D105E30FD6F66C
:100340001317060193970601631CF7001357060164
:1003500093D706013305F7409375F50F91E9828035
:100360004183C1833305F7409375F50F91E1828096
:100370001377F70F93F7F70F3305F74082800346A3
:10038000050083C60500050585056313D60065FADB
:100390003305D640828011059105E312D6FE014552
:1003A00082802105A105E31CD6FC01458280310530
:1003B000B105E316D6FC014582804105C105E31075
:1003C000D6FC01458280011122CE00102326A4FE16
:1003D00037F500E08328450037F500E093F8E8FFA3
:1003E0002322150183A801820965130505F433D57D
:1003F000A802AA8601470325C4FEAA87014837F54B
:1004000000E03303F702B308D8029A983383F60268
:1004100033B6F6029A85B387C8003E860CC950C928
:10042000B7F700E09843B7F700E01367070198C3F8
:10043000B7F700E09843B7F700E01367170298C3D7
:100440000100B7F700E0DC4313F717008547E31A14
:10045000F7FEB7F700E09843B7F700E0799B98C341
:100460000100724405618280011106CE22CC001089
:10047000AA8E2E8E32833685BA853E86C286468700
:10048000F687A307F4FEF2872307F4FE9A87A306F4
:10049000F4FEAA872306F4FEAE87A305F4FEB28716
:1004A0002305F4FEB687A304F4FEBA872304F4FE02
:1004B0008347F4FE93068004014681453E85492921
:1004C0008347E4FE93068004014681453E85492129
:1004D0008347D4FE93068004014681453E858D29DD
:1004E0008347C4FE93068004014681453E858D21E5
:1004F0008347B4FE93068004014681453E858929E1
:100500008347A4FE93068004014681453E858921E8
:10051000834794FE93068004014681453E850D295C
:10052000834784FE93068004014681453E850D2164
:100530008347440093068004014681453E8509298E
:100540008347040093068004014681453E850921C6
:100550008347840093068004014681453E85CD2E65
:100560000100F240624405618280011106CE22CC76
:1005700000102326A4FE2324B4FEB287368723135B
:10058000F4FEBA872312F4FE85450965EF7080609A
:10059000B707055083C7070013F7F70FB7070550D4
:1005A0001377F7FC1377F70F2380E700B7070550A1
:1005B00083C7070013F7F70FB70705501367270422
:1005C0001377F70F2380E700B707055083C717009D
:1005D00013F7F70FB7070550659B1377F70FA38045
:1005E000E700B7070550035744FE2392E700B7071B
:1005F0000550035764FE2393E700B7070550032710
:10060000C4FE98C7B7070550032784FED8C7B707AD
:10061000055083C7170013F7F70FB7070550137777
:10062000F7031377F70FA380E70037070550B707E5
:100630000550034717001377F70FA380E700B707AC
:10064000055083C7270013F7F70FB7070550136747
:1006500047001377F70F2381E700B707055083C7DB
:10066000170013F7F70FB707055013671700137735
:10067000F70FA380E700B707055083C7070013F7FC
:10068000F70FB7070550136717001377F70F23808D
:10069000E7008D4513056005EF50A06E130560055A
:1006A000EF50606A0100F240624405618280797116
:1006B00006D622D40018232EA4FC231704FE2316EA
:1006C00004FE0327C4FDA54763E0E70C8327C4FDB0
:1006D00013972700C5679387C77CBA979C43828787
:1006E000B7370140938707C083D74702C207C1834A
:1006F0002317F4FE69A8B707004083D74702C20753
:10070000C1832317F4FE61A0B70700409387074019
:1007100083D74702C207C1832317F4FE8DA8B717FA
:1007200000409387078083D74702C207C1832317FE
:10073000F4FEB1A8B7170040938707C083D74702DC
:10074000C207C1832317F4FE99A0B73701409387EE
:10075000074083D74702C207C1832317F4FE05A8C9
:10076000B7570140938707C083D74702C207C183A9
:100770002317F4FE29A8B757014083D74702C207C1
:10078000C1832317F4FE21A0231704FE0100B7073D
:100790000020138707048327C4FDBA9783C7070087
:1007A00013F7F70F9307F00F6317F7008357E4FE73
:1007B0002316F4FE2DA8B70700201387070483270C
:1007C000C4FDBA9783C7070093F7F70F3E858122D0
:1007D000AA8791EB8357E4FEB307F040C207C183B9
:1007E0002316F4FE29A08357E4FE2316F4FE831794
:1007F000C4FE3E85B250225445618280011122CE52
:1008000000102326A4FE0327C4FEA54763E0E708E3
:100810008327C4FE13972700C5679387477FBA973E
:100820009C438287B7370140938707C02392070212
:10083000B9A8B70700402392070291A8B707004064
:10084000938707402392070299A0B7170040938728
:1008500007802392070225A8B7170040938707C097
:10086000239207022DA0B7370140938707402392B8
:10087000070231A8B7570140938707C023920702A8
:1008800039A0B75701402392070211A001000100CF
:10089000724405618280011122CE00102326A4FE3D
:1008A000AE87A305F4FE8347B4FE85CB8327C4FE41
:1008B000BD8B0547B317F70093960701C1828327C5
:1008C000C4FE13D75700B70700200A079387C70451
:1008D000BA979C43368798CB3DA08327C4FEBD8B37
:1008E0000547B317F70093960701C1828327C4FE1B
:1008F00013D75700B70700200A079387C704BA9792
:100900009C433687D8CB0100724405618280011177
:1009100022CE00102326A4FE8327C4FE958313F75E
:100920007700B70700200A079387C704BA979C434C
:100930009C470327C4FE7D8B85463397E600F98FDD
:10094000B337F00093F7F70F3E857244056182805C
:10095000797106D622D40018232EA4FC232CB4FCD3
:10096000B2872328D4FCA30BF4FC232004FE23220B
:1009700004FE232404FE8327C4FD958393F7F70F19
:100980009D8BA307F4FE8327C4FD93F7F70FFD8B20
:100990002307F4FE8347F4FE91E785451145EF7088
:1009A000C02391A80347F4FE85476317F7008545E8
:1009B0002145EF70802281A00347F4FE8947631729
:1009C000F70085454145EF70402135A00347F4FE0F
:1009D0008D476318F700854513050002EF70E01F8F
:1009E00019A80347F4FE91476317F70085451305DF
:1009F0000004EF70801E8347E4FE0547B317F7003D
:100A0000C207C1832310F4FE032784FD85476317C3
:100A1000F702832704FDC207C183A183C207C183F4
:100A200089E78D472322F4FE11A8832704FDC2071E
:100A3000C183A183C207C1832322F4FE832704FD5F
:100A4000C207C18393F7F70F2324F4FE0347F4FE94
:100A5000B70700200A079387C704BA979C43130778
:100A600004FEBA853E85EF60F023032784FD8547A9
:100A70006319F7020347F4FEB70700200A079387BC
:100A8000C704BA9794438347E4FE0547B317F700BA
:100A9000C207C183034774FD3A86BE853685EF6081
:100AA00010430100B2502254456182801D7186CEF0
:100AB000A2CC80102326A4FA2324B4FA854503256A
:100AC000C4FAEF10A049AA873E871306D006C5676F
:100AD000938547143A85EF40E037832784FAB3378C
:100AE000F00093F7F70F3E871306F006C56793856E
:100AF00047143A85EF400036832784FABD832315D7
:100B0000F4FE8357A4FE85073E87832784FAB3D774
:100B1000E7022314F4FE0325C4FAEF10804AB73726
:100B20000140938707C02326F4FE0327C4FAA54794
:100B300063ECE7088327C4FA13972700C9679387F4
:100B4000C781BA979C438287B7370140938707C014
:100B50002326F4FE95A8B70700402326F4FEADA097
:100B6000B7070040938707402326F4FEB1A8B717C4
:100B70000040938707802326F4FEB9A0B7170040F2
:100B8000938707C02326F4FE81A0B71700402326D1
:100B9000F4FE1DA8B7170040938707402326F4FEF4
:100BA00025A0B7370140938707402326F4FE29A8E4
:100BB000B7570140938707C02326F4FE31A0B757EB
:100BC00001402326F4FE0100232E04FC232004FE12
:100BD000231204FE835784FE2310F4FE8357A4FEE1
:100BE000231EF4FC231104FE231F04FC230204FE35
:100BF0009307C4FDBE850325C4FEEF70002C054697
:100C000085450325C4FEEF70B03B85450325C4FE32
:100C1000EF701072C56703AEC7111387C7110323A6
:100C200047001387C711832887001387C71103283C
:100C3000C7001387C711084B1387C7114C4B138785
:100C4000C711104F1387C711544F1387C71118537B
:100C50009387C711DC53232AC4FB232C64FA232E69
:100C600014FB232004FD2322A4FC2324B4FC23260C
:100C7000C4FC2328D4FC232AE4FC232CF4FC832783
:100C8000C4FA93F7F70F8A07130704FFBA9783A7ED
:100C900047FC8D453E85EF50C00E8327C4FA8A0776
:100CA000130704FFBA9783A747FC3E85EF50A009BE
:100CB00085450325C4FEEF7030250100F6406644EB
:100CC000256182805D7186C6A2C48008232EA4FAA5
:100CD000232CB4FA232AC4FA8327C4FBC1838D458D
:100CE0003E85EF10A027AA873E871306D00AC56766
:100CF000938547193A85EF40E015032744FB896740
:100D000093871771B337F70093F7F70F3E871306F2
:100D1000F00AC567938547193A85EF40A013232E43
:100D200004FC232004FE231204FE232604FC2328B3
:100D300004FC232A04FC232C04FC231504FE832733
:100D4000C4FBC183BD8B3E85EF10A0278327C4FB66
:100D500093F7F70F93068031014685453E85CD3EDA
:100D600085450545EF607067B7370140938707C039
:100D70002326F4FE8327C4FBC183BD8B2547636E06
:100D8000F70613972700C96793874784BA979C4350
:100D90008287B7370140938707C02326F4FEB1A8A6
:100DA000B70700402326F4FE89A8B70700409387C1
:100DB00007402326F4FE91A0B717004093870780D1
:100DC0002326F4FE1DA8B7170040938707C02326EB
:100DD000F4FE25A0B7370140938707402326F4FE91
:100DE00029A8B7570140938707C02326F4FE31A0F6
:100DF000B75701402326F4FE01008327C4FB13D715
:100E0000C7008D47631AF7008545B707160013859D
:100E1000070CEF60500F15AA8327C4FB13D7C70038
:100E2000C547631AF7008545B707180013850710F3
:100E3000EF60700D19AA8327C4FB13D7C700C947F9
:100E4000631AF7008545B707180013850720EF6080
:100E5000900BE5A88327C4FB13D7C700CD47631ABF
:100E6000F7008545B707180013850730EF60B00914
:100E7000E9A88327C4FB13D7C70093072002631A8E
:100E8000F7008545B7171A0013850780EF60B00794
:100E90006DA88327C4FB13D7C70093073002631ADA
:100EA000F7008545B7171A00138507C0EF60B00536
:100EB00069A88327C4FB13D7C700930710036317E0
:100EC000F70085450565EF60100441A08327C4FB4A
:100ED00013D7C70093071007631AF7008545B707B4
:100EE000008013854700EF60100285A08327C4FBB4
:100EF00013D7C70093073008631AF7008545B70773
:100F0000138013850701EF60100081A08327C4FBC5
:100F100013D7C70093071009631AF7008545B70771
:100F2000158013850702EF60007E05A08327C4FBB0
:100F300013D7C700930730096319F7008545B70732
:100F4000158013850704EF60007C03A701828327C7
:100F500084FBB357F702C1832315F4FE03A7018274
:100F60008357A4FE8507BE86832784FBB387F602DA
:100F7000B357F7022314F4FE035784FE832744FB80
:100F80003307F702896793870771B357F702231373
:100F9000F4FE835784FEFD17C207C1832310F4FEBD
:100FA0008357A4FE231EF4FC231104FE231F04FC1C
:100FB000230204FE9307C4FDBE850325C4FEEF6033
:100FC000D06F930700072316F4FC85472317F4FC22
:100FD000231804FC835764FE2319F4FC8947231A61
:100FE000F4FC8947231BF4FC231C04FC231D04FC94
:100FF0008327C4FBA1838D8B9DE39307C4FCBE852F
:101000000325C4FEEF704003A1450325C4FEEF7025
:10101000300291450325C4FEEF70501645A083278A
:10102000C4FBA18313F7370085476315F7029307C5
:10103000C4FCBE850325C4FEEF70C019A14503257D
:10104000C4FEEF70B003930500400325C4FEEF70AB
:10105000B017ADA08327C4FBA18313F737008947DE
:101060006314F7029307C4FCBE850325C4FEEF702A
:101070008034A1450325C4FEEF70F005914503259A
:10108000C4FEEF70D0191DA88327C4FBA18313F7FA
:1010900037008D476314F7029307C4FCBE85032510
:1010A000C4FEEF70004FA1450325C4FEEF7070072A
:1010B000930500400325C4FEEF70301B85450325D2
:1010C000C4FEEF70E06985450325C4FEEF70C06380
:1010D0000100B640264461618280797106D622D42F
:1010E0000018232EA4FC8327C4FDB337F00093F728
:1010F000F70F3E8713061004C5679385471E3A8590
:10110000EF3050558327C4FD9C43BD8B0547B31773
:10111000F70093960701C1828327C4FD9C4313D730
:101120005700B70700200A079387C704BA979C4364
:10113000368798CB8327C4FDDC43BD8B0547B317A7
:10114000F70093960701C1828327C4FDDC4313D7C0
:101150005700B70700200A079387C704BA979C4334
:10116000368798CB8327C4FDDC472326F4FE010095
:101170008327C4FE1387F7FF2326E4FEF5FB8327AE
:10118000C4FDDC43BD8B0547B317F70093960701F9
:10119000C1828327C4FDDC4313D75700B707002063
:1011A0000A079387C704BA979C433687D8CB83270F
:1011B000C4FDDC472324F4FE0100832784FE13874B
:1011C000F7FF2324E4FEF5FB8327C4FD9C43BD8B7E
:1011D0000547B317F70093960701C1828327C4FD23
:1011E0009C4313D75700B70700200A079387C7040B
:1011F000BA979C433687D8CB0100B2502254456140
:101200008280797106D622D40018232EA4FC83276D
:10121000C4FDB337F00093F7F70F3E871306400580
:10122000C5679385471E3A85EF30D0428327C4FDBA
:10123000DC43BD8B0547B317F70093960701C182C6
:101240008327C4FDDC4313D75700B70700200A07E4
:101250009387C704BA979C433687D8CB8327C4FDAE
:101260009C43BD8B0547B317F70093960701C182D6
:101270008327C4FD9C4313D75700B70700200A07F4
:101280009387C704BA979C433687D8CB8327C4FD7E
:10129000DC472326F4FE01008327C4FE1387F7FFF3
:1012A0002326E4FEF5FB8327C4FD9C43BD8B054745
:1012B000B317F70093960701C1828327C4FD9C43AF
:1012C00013D75700B70700200A079387C704BA97B8
:1012D0009C43368798CB8327C4FDDC472324F4FE48
:1012E0000100832784FE1387F7FF2324E4FEF5FB28
:1012F0008327C4FDDC43BD8B0547B317F7009396E6
:101300000701C1828327C4FDDC4313D75700B70709
:1013100000200A079387C704BA979C43368798CB67
:101320008327C4FDDC472322F4FE0100832744FE0B
:101330001387F7FF2322E4FEF5FB0100B25022548D
:1013400045618280797106D622D40018232EA4FC30
:10135000AE87A30DF4FC8327C4FDB337F00093F7E9
:10136000F70F3E8713069006C5679385471E3A859B
:10137000EF30502E8327C4FD9C43BD8B0547B31728
:10138000F70093960701C1828327C4FD9C4313D7BE
:101390005700B70700200A079387C704BA979C43F2
:1013A0003687D8CB8347B4FD95CB8327C4FDDC4378
:1013B000BD8B0547B317F70093960701C1828327BA
:1013C000C4FDDC4313D75700B70700200A079387F3
:1013D000C704BA979C43368798CB0DA88327C4FDD2
:1013E000DC43BD8B0547B317F70093960701C18215
:1013F0008327C4FDDC4313D75700B70700200A0733
:101400009387C704BA979C433687D8CB8327C4FDFC
:10141000DC472326F4FE01008327C4FE1387F7FF71
:101420002326E4FEF5FB8327C4FD9C43BD8B0547C3
:10143000B317F70093960701C1828327C4FD9C432D
:1014400013D75700B70700200A079387C704BA9736
:101450009C43368798CB8327C4FDDC472324F4FEC6
:101460000100832784FE1387F7FF2324E4FEF5FBA6
:101470008327C4FD9C43BD8B0547B317F7009396A4
:101480000701C1828327C4FD9C4313D75700B707C8
:1014900000200A079387C704BA979C433687D8CBA6
:1014A0008327C4FDDC43BD8B0547B317F700939634
:1014B0000701C1828327C4FDDC4313D75700B70758
:1014C00000200A079387C704BA979C43368798CBB6
:1014D0000100B250225445618280797106D622D42F
:1014E0000018232EA4FC8327C4FDB337F00093F724
:1014F000F70F3E8713065008C5679385471E3A8548
:10150000EF305015A30704FE8327C4FD9C43BD8B19
:101510000547B317F70093960701C1828327C4FDDF
:101520009C4313D75700B70700200A079387C704C7
:10153000BA979C433687D8CB8327C4FDDC43BD8B49
:101540000547B317F70093960701C1828327C4FDAF
:10155000DC4313D75700B70700200A079387C70457
:10156000BA979C43368798CB8327C4FDDC47232456
:10157000F4FE0100832784FE1387F7FF2324E4FE93
:10158000F5FB8327C4FD9C43BD8B0547B317F700CC
:1015900093960701C1828327C4FD9C4313D757004C
:1015A000B70700200A079387C704BA979C4336877A
:1015B00098CB8327C4FDDC472322F4FE0100832758
:1015C00044FE1387F7FF2322E4FEF5FB8327C4FDC7
:1015D000DC433E85EFF0AFB3AA8781C78547A307F9
:1015E000F4FE8327C4FD9C43BD8B0547B317F7006A
:1015F00093960701C1828327C4FD9C4313D75700EC
:10160000B70700200A079387C704BA979C43368719
:10161000D8CB8327C4FDDC472320F4FE01008327B9
:1016200004FE1387F7FF2320E4FEF5FB8347F4FE57
:101630003E85B250225445618280797106D622D40B
:101640000018232EA4FCAE87A30DF4FC8327C4FD51
:10165000B337F00093F7F70F3E871306700AC5679C
:101660009385471E3A85EF30E07E930700F8A30785
:10167000F4FE09AA0347B4FD8347F4FEF98F93F7FC
:10168000F70F95CB8327C4FDDC43BD8B0547B3170C
:10169000F70093960701C1828327C4FDDC4313D76B
:1016A0005700B70700200A079387C704BA979C43DF
:1016B000368798CB0DA88327C4FDDC43BD8B054737
:1016C000B317F70093960701C1828327C4FDDC435B
:1016D00013D75700B70700200A079387C704BA97A4
:1016E0009C433687D8CB8347F4FE8583A307F4FE5B
:1016F0008327C4FDDC472324F4FE0100832784FEF6
:101700001387F7FF2324E4FEF5FB8327C4FD9C43E6
:10171000BD8B0547B317F70093960701C182832756
:10172000C4FD9C4313D75700B70700200A079387CF
:10173000C704BA979C43368798CB8327C4FDDC4700
:101740002322F4FE0100832744FE1387F7FF2322A0
:10175000E4FEF5FB8327C4FD9C43BD8B0547B3170F
:10176000F70093960701C1828327C4FD9C4313D7DA
:101770005700B70700200A079387C704BA979C430E
:101780003687D8CB8347F4FEE39607EE0325C4FDE6
:10179000A933AA87FD17B337F00093F7F70F3E85FB
:1017A000B250225445618280397106DE22DC26DA8D
:1017B00080002326A4FCAE87A305F4FC8327C4FC89
:1017C000B337F00093F7F70F3E871306000CC56799
:1017D0009385471E3A85EF30E067A30704FEA147D3
:1017E0002307F4FE8327C4FC9C43BD8B0547B31736
:1017F000F70093960701C1828327C4FC9C4313D74B
:101800005700B70700200A079387C704BA979C437D
:101810003687D8CB8327C4FCDC472324F4FE0100A1
:10182000832784FE1387F7FF2324E4FEF5FB832739
:10183000C4FCDC43BD8B0547B317F7009396070143
:10184000C1828327C4FCDC4313D75700B7070020AD
:101850000A079387C704BA979C43368798CB7DA81D
:101860008327C4FC9C43BD8B0547B317F7009396B1
:101870000701C1828327C4FC9C4313D75700B707D5
:1018800000200A079387C704BA979C433687D8CBB2
:101890008327C4FCDC472322F4FE0100832744FE97
:1018A0001387F7FF2322E4FEF5FB8327C4FC9C4348
:1018B000BD8B0547B317F70093960701C1828327B5
:1018C000C4FC9C4313D75700B70700200A0793872F
:1018D000C704BA979C43368798CB8327C4FCDC4760
:1018E0002320F4FE0100832704FE1387F7FF232043
:1018F000E4FEF5FB8347F4FE860793948701E184B9
:101900008327C4FCDC433E85EFF06F80AA87E207A3
:10191000E187C58FE207E187A307F4FE8347E4FE72
:101920001387F7FF2307E4FE85FF8327C4FC9C434E
:10193000BD8B0547B317F70093960701C182832734
:10194000C4FC9C4313D75700B70700200A079387AE
:10195000C704BA979C433687D8CB8327C4FCDC479F
:10196000232EF4FC01008327C4FD1387F7FF232EE9
:10197000E4FCF5FB8347B4FCBE850325C4FCD932E7
:101980008347F4FE3E85F2506254D2542161828036
:10199000011106CE22CC00102326A4FEAE8732878A
:1019A000A305F4FEBA872305F4FE8327C4FEB337EC
:1019B000F00093F7F70F3E8713062029C56793853C
:1019C000471E3A85EF3000490325C4FEEFF0EFF0E3
:1019D0008327C4FE83C78700860793F7F70FBE856A
:1019E0000325C4FE99398347B4FEBE850325C4FE92
:1019F000A9318347A4FEBE850325C4FE3D390325D6
:101A0000C4FEEFF01F800100F24062440561828055
:101A1000797106D622D40018232EA4FCAE87A30D1C
:101A2000F4FC8327C4FDB337F00093F7F70F3E872C
:101A30001306402AC5679385471E3A85EF308041DB
:101A4000A30704FE0325C4FDEFF02FE98327C4FD9F
:101A500083C78700860793F7F70FBE850325C4FD6C
:101A6000E93E8347B4FDBE850325C4FDF936032551
:101A7000C4FDEFF00FF90325C4FDEFF00FE6832757
:101A8000C4FD83C787008607E207E18793E7170055
:101A9000E207E18793F7F70FBE850325C4FD713E8A
:101AA00085450325C4FD0933AA87A307F4FE032552
:101AB000C4FDEFF00FF58347F4FE3E85B25022548B
:101AC00045618280797106D622D400182326A4FEAF
:101AD000AE872322C4FE2320D4FE232EE4FCA305DC
:101AE000F4FE8327C4FEB337F00093F7F70F3E8769
:101AF0001306F02BC5679385471E3A85EF30803576
:101B0000032704FE8327C4FDB307F740B337F00073
:101B100093F7F70F3E871306002CC5679385471E82
:101B20003A85EF3020338327C4FE032704FE98C391
:101B30008327C4FE0327C4FDD8C38327C4FE0347FD
:101B4000B4FE2384E7008327C4FE032744FED8C7DE
:101B5000C14605468545032504FEEFE07FDFD146FB
:101B6000054685450325C4FDEFE09FDE0100B25028
:101B7000225445618280011122CE00102326A4FE4A
:101B8000AE87A305F4FEC9670327C4FE0A0793873F
:101B9000C786BA979C433E878347B4FEC207C1837A
:101BA0002316F7000100C9670327C4FE0A079387BD
:101BB000C786BA979C4383D78700C207C18393F730
:101BC0000708F5F3C9670327C4FE0A079387C7868A
:101BD000BA979C4383D7C700010072440561828095
:101BE000011122CE00102326A4FEAE872315F4FE99
:101BF0008357A4FEA183C207C18393F6F70FC96779
:101C00000327C4FE0A079387C786BA979C433E877B
:101C100093970601C1832316F7000100C9670327C4
:101C2000C4FE0A079387C786BA979C4383D7870069
:101C3000C207C18393F70708F5F38357A4FE93F611
:101C4000F70FC9670327C4FE0A079387C786BA97A9
:101C50009C433E8793970601C1832316F70001003A
:101C6000C9670327C4FE0A079387C786BA979C43B0
:101C700083D78700C207C18393F70708F5F30100F4
:101C80007244056182805D7186C6A2C480082326E5
:101C9000A4FC2324B4FC2322C4FC2320D4FC232E44
:101CA000E4FA232CF4FA232A04FBC9670327C4FCB3
:101CB0000A079387C786BA979C433E85EF60600307
:101CC00085450545EF507071032704FC93073012DA
:101CD000631DF7000327C4FB930750126317F70037
:101CE00085450545EF50302225A0032704FC896770
:101CF0009387A714631EF7000327C4FB89679387A4
:101D0000C7146317F700854537152000EF50B01F43
:101D10008327C4FC91E785450565EF50106C25A02D
:101D20000327C4FC85476317F70085451165EF500D
:101D3000306F11A80327C4FC89476316F700854557
:101D40002165EF50F06D832704FC93F7F70F93069E
:101D50008031054685453E85EFE09FBF8327C4FB64
:101D600093F7F70F93068031054685453E85EFE0F2
:101D70003FBE032784FBC167F917630DF700832774
:101D800084FB93F7F70F93068034054681453E8523
:101D9000EFE01FBC032744FB9307F00F630DF70030
:101DA000832744FB93F7F70F9306003101468545DF
:101DB0003E85EFE0FFB9232E04FC232004FE2322FE
:101DC00004FE232404FE231604FE231E04FC9307B2
:101DD0004010231FF4FC231004FE032784FC8547D6
:101DE0006305F702832784FC81CF032784FC89479E
:101DF0006303F702032784FC8D476304F7020DA8F1
:101E0000231104FE231204FE25A0231104FE85479E
:101E10002312F4FE31A889472311F4FE231204FE95
:101E200001A889472311F4FE85472312F4FE01001F
:101E3000231704FE03A70182832744FCB357F7024C
:101E40002317F4FE03A70182832744FCB377F7022C
:101E500091E78357E4FEFD172317F4FE0357E4FED2
:101E60009307F00763F7E700930780032317F4FE57
:101E700049A80357E4FE9307F00363F7E7009307CD
:101E800000032317F4FEB5A80357E4FEFD4763F7EC
:101E9000E700930780022317F4FEA5A00357E4FE92
:101EA000BD4763F7E700930700022317F4FE91A8EC
:101EB0000357E4FE9D4763F6E700E1472317F4FE6E
:101EC00089A00357E4FE8D4763F6E700C147231757
:101ED000F4FE05A80357E4FE854763F6E700A14733
:101EE0002317F4FE39A88357E4FE81C7231704FEA5
:101EF00009A813067021C5679385C7230145EF2004
:101F000070758357E4FE2314F4FE93070020231317
:101F1000F4FE231504FE9D472316F4FEC96703272C
:101F2000C4FC0A079387C786BA979C433E879307EA
:101F3000C4FDBE853A85EF503063C9670327C4FCF2
:101F40000A079387C786BA979C4385453E85EF501D
:101F500030710100B640264461618280797122D6D9
:101F60000018232EA4FC232CB4FC8547A307F4FE01
:101F70000327C4FD0A0793874191BA979C4399EBC5
:101F80000327C4FD0A0793874191BA97032784FD6D
:101F900098C315A00327C4FD0A0793874191BA97F8
:101FA0009C43032784FD6316F7008547A307F4FECF
:101FB00019A0A30704FE8347F4FE3E853254456111
:101FC0008280011106CE22CC00102326A4FE832796
:101FD000C4FE81EB8545856713850780EF50F03F90
:101FE0006DA80327C4FE85476317F700854505459F
:101FF000EF5010435DA00327C4FE89476317F70025
:1020000085450945EF50D04149A80327C4FE8D47B7
:102010006317F70085451145EF509040BDA8032791
:10202000C4FE91476317F70085452145EF50503FA7
:10203000ADA00327C4FE95476317F70085454145CA
:10204000EF50103E99A80327C4FE99476318F70084
:10205000854513050002EF50B03C81A00327C4FE64
:102060009D476317F70085450965EF50103735A088
:102070000327C4FEA1476318F7008545370508000C
:10208000EF50B03519A80327C4FEA5476317F70022
:10209000854537051000EF5050340100F24062448E
:1020A00005618280797122D60018232EA4FCB737EF
:1020B0000140938707C02326F4FE231504FE03275F
:1020C000C4FDA54763ECE7088327C4FD13972700E9
:1020D000C96793878787BA979C438287B737014040
:1020E000938707C02326F4FE95A8B7070040232650
:1020F000F4FEADA0B7070040938707402326F4FE07
:10210000B1A8B7170040938707802326F4FEB9A033
:10211000B7170040938707C02326F4FE81A0B717A6
:1021200000402326F4FE1DA8B71700409387074000
:102130002326F4FE25A0B7370140938707402326C6
:10214000F4FE29A8B7570140938707C02326F4FE61
:1021500031A0B75701402326F4FE01000327C4FD38
:102160000A079387C193BA9798438947631FF7007B
:102170008327C4FE83D747021397070141838D4706
:10218000B357F7022315F4FE39A08327C4FE83D783
:1021900047022315F4FE8357A4FE3E853254456161
:1021A0008280797122D60018232EA4FCB737014013
:1021B000938707C02326F4FE0327C4FDA54763ECDD
:1021C000E7088327C4FD13972700C9679387078A09
:1021D000BA979C438287B7370140938707C023266D
:1021E000F4FE95A8B70700402326F4FEADA0B7077C
:1021F0000040938707402326F4FEB1A8B71700409C
:10220000938707802326F4FEB9A0B7170040938771
:1022100007C02326F4FE81A0B71700402326F4FE52
:102220001DA8B7170040938707402326F4FE25A07A
:10223000B7370140938707402326F4FE29A8B757F4
:102240000140938707C02326F4FE31A0B757014011
:102250002326F4FE01008327C4FE23920702010017
:10226000325445618280011122CE00102326A4FE43
:10227000AE87A305F4FE0100C9670327C4FE0A0761
:102280009387878CBA979C4383D70700C207C18383
:1022900093F70708F5D3C9670327C4FE0A07938796
:1022A000878CBA979C433E878347B4FEC207C1839D
:1022B0002312F7000100724405618280011106CEED
:1022C00022CC00102326A4FE2324B4FE2322C4FE25
:1022D000832784FEB337F00093F7F70F3E8713068A
:1022E0001004C5679385C7283A85EF20B03629A822
:1022F000832784FE138717002324E4FE83C7070087
:10230000BE850325C4FE8537832744FE1387F7FF68
:102310002322E4FEF1FF0100F24062440561828065
:10232000011106CE22CC00102326A4FE2324B4FEE5
:10233000832784FEB337F00093F7F70F3E87130629
:102340000005C5679385C7283A85EF20B03039A8C6
:10235000832784FE138717002324E4FE8387070066
:1023600093F7F70FBE850325C4FEF53D832784FE52
:1023700083870700F1FF0100F2406244056182801B
:10238000011106CE22CC00102326A4FEAE87A305A1
:10239000F4FEC9670327C4FE0A079387878CBA97A0
:1023A0009C433E878347B4FE3E86930550523A8550
:1023B000EF603024138741848327C4FEBA9783C714
:1023C000070081453E85EF30D01B8347B4FE81CFA7
:1023D000138741848327C4FEBA9783C707003E85CD
:1023E000EF30701619A8138741848327C4FEBA976B
:1023F00083C707003E85EF30F0160100F2406244CB
:1024000005618280011122CE00102326A4FE232420
:10241000B4FEC9670327C4FE0A079387878CBA975F
:102420009C4383D70700C207C18393F707028DC778
:10243000C9670327C4FE0A079387878CBA979C4312
:1024400083D74700C207C18313F7F70F832784FEA2
:102450002380E700854711A081473E8572440561CE
:102460008280797106D622D40018232EA4FC232C56
:10247000B4FC232AC4FC2328D4FC032744FD83276F
:1024800004FD3D8F8327C4FDB207F98F93B7170072
:1024900093F7F70F3E871306A00AC5679385C728F1
:1024A0003A85EF20301B832744FD13D7870083270D
:1024B00004FDA183B307F74093B7170093F7F70F15
:1024C0003E871306B00AC5679385C7283A85EF2073
:1024D0007018832744FD93F7F70FE14601468545C1
:1024E0003E85EFE0EFC6832704FD93F7F70F9306D1
:1024F0008004014681453E85EFE08FC58545054551
:10250000EF50A06D032744FDC167FD17F98F0D67DC
:10251000130707386387E7200D67130707386369D8
:10252000F7040567130757166381E7160567130756
:102530005716636FF7001307F022638AE70C13073F
:1025400060306381E710130760126388E70865A6AF
:10255000096713078736638BE7160D6713070712A2
:102560006387E71809671307A7146380E71461A658
:1025700015671307A738638EE72615671307A73873
:102580006362F7021167130787386380E7201567D6
:10259000130787126385E722116713074712638CBD
:1025A000E71A91AE19671307C7386388E72A1967D6
:1025B0001307C7386368F700196713076710638448
:1025C000E72615AE1D671307E7106382E72C1D672A
:1025D0001307E7386387E72E39AEB7070140D44FBA
:1025E000B7070140370700FC7D17758FD8CFB707B5
:1025F0000140D843B70701406D9BD8C3B7070140DE
:10260000D843B707014013674700D8C3EDA4B70705
:102610000140D44FB7070140370700FC7D17758F85
:10262000D8CFB7070140D44FB707014037070004A0
:10263000558FD8CFB7070140D843B70701406D9BEE
:10264000D8C355ACB7070140D44FB707014037078F
:1026500000FC7D17758FD8CFB7070140D44FB7075F
:10266000014037070004558FD8CFB7070140D84342
:10267000B70701406D9BD8C3B7070140D843B707E0
:10268000014013674700D8C3BDA4B7070140D84332
:10269000B70701405D9BD8C3B7070140D843B707D0
:1026A000014013678700D8C3B9A4B7070140D843D6
:1026B000B70701401377F7FCD8C3B7070140D843E9
:1026C000B707014013670701D8C335A4B707014016
:1026D000D843B70701401377F7FCD8C3B7070140C9
:1026E000D843B707014013670703D8C329A4B70726
:1026F0000140D44FB70701403707FDFF7D17758FA5
:10270000D8CFB7070140D44F832744FDA183139747
:102710000701B70703007D8FB7070140558FD8CF5A
:10272000D9AAB7070140D44FB70701403707FDFFCB
:102730007D17758FD8CFB7070140D44F832744FD4D
:10274000A18313970701B70703007D8FB7070140E7
:10275000558FD8CF4DA2B7070140D44FB7070140DE
:102760003707F4FF7D17758FD8CFB7070140D44FD7
:10277000832744FDA18313972701B7070C007D8FA2
:10278000B7070140558FD8CFBDA2B7070140D44F3E
:10279000B70701403707F4FF7D17758FD8CFB7070C
:1027A0000140D44F832744FDA18313972701B70726
:1027B0000C007D8FB7070140558FD8CF2DAAB707E2
:1027C0000140D44FB70701403707D0FF7D17758F01
:1027D000D8CFB7070140D44F832744FDA183139777
:1027E0004701B70730007D8FB7070140558FD8CF1D
:1027F00019A2B7070140D44FB70701403707D0FFF0
:102800007D17758FD8CFB7070140D44F832744FD7C
:10281000A18313974701B70730007D8FB7070140A9
:10282000558FD8CFC9A8B7070140D44FB70701408B
:10283000370740FF7D17758FD8CFB7070140D44FBA
:10284000832744FDA18313976701B707C0007D8FDD
:10285000B7070140558FD8CF79A8B7070140D44FAB
:10286000B7070140370740FF7D17758FD8CFB707EF
:102870000140D44F832744FDA18313976701B70715
:10288000C0007D8FB7070140558FD8CFADA0B707E7
:102890000140D44FB7070140370700FD7D17758F02
:1028A000D8CFB7070140D44F832744FDA1831397A6
:1028B0008701B70700037D8FB7070140558FD8CF39
:1028C0001DA8B7070140D44FB7070140370700FDE7
:1028D0007D17758FD8CFB7070140D44F832744FDAC
:1028E000A18313978701B70700037D8FB7070140C6
:1028F000558FD8CF01008327C4FD91E78545116529
:10290000EF50A02D69A80327C4FD85476318F70081
:10291000854537050200EF50A03051A00327C4FDC4
:1029200089476318F700854537050400EF50402FAD
:10293000BDA00327C4FD8D476318F7008545370503
:102940000800EF50E02DA1A80327C4FD91476318AC
:10295000F700854537051000EF50802C89A003272C
:10296000C4FD95476318F700854513050004EF5033
:10297000202B35A00327C4FD99476318F700854530
:1029800013050008EF50C02919A80327C4FD9D476F
:102990006317F700854513050010EF5060282320CA
:1029A00004FE232204FE232404FE232604FE8327A0
:1029B00084FD2320F4FE231204FE231304FE2314BB
:1029C00004FE231604FEB1472315F4FEC96703274E
:1029D000C4FD0A079387878CBA979C433E87930769
:1029E00004FEBE853A85EF608017C9670327C4FDE2
:1029F0000A079387878CBA979C4385453E85EF608D
:102A000040390100B250225445618280411106C60E
:102A100022C40008A146138681858145138541960D
:102A2000EF2050730100B2402244410182804111E5
:102A300006C622C4000883A741860547638BE700CA
:102A40006388070C0947638DE7000D47638FE70232
:102A5000E9A083A701861387170023A0E18675A844
:102A600083A701861387170023A0E18603A70186A9
:102A7000A54763F1E70AB70700209387C7049C4B7B
:102A80001167D8CB23A0018671A003A78186854753
:102A90006314F7081305F008EFD07FE7AA87ADC3EA
:102AA0001945EFF02FE0AA873E8783A701861D8F87
:102AB0009307600963F2E7061945EFF08FEE83A7ED
:102AC0000186D3F717D05385F720EFA01064C567B0
:102AD00003A6072E83A6472EEF909028AA872E885C
:102AE0003E85C285EFA0304BAA871397070141832B
:102AF000B70700202398E742094723A4E18629A8C5
:102B00001945EFF02FDAAA873E8723A0E18629A096
:102B1000010021A0010011A001000100B2402244E7
:102B200041018280411106C622C4000883A7418664
:102B30000947637CF7000D47639AE7001945EFF0FA
:102B40004FE6054723A4E18611A001000100B24031
:102B5000224441018280011106CE22CC00102322A2
:102B600004FE83C7D186638A070E09A8930734FE43
:102B70000546BE8513850198EF20807F930734FEBC
:102B8000BE851D45EFF01F88AA87EDF3034734FE8D
:102B9000A9476314F70C99472322F4FE130744FE58
:102BA000930784FE85463A86BE8513850198EF20FB
:102BB000702C930784FE138737000D46C5679385F5
:102BC000872E3A85EFB07021AA879DEB03A7418736
:102BD0008947630DF706054723AAE1861385019807
:102BE000EF204063AA872322F4FE930744FE814628
:102BF0003E869385C1A113850198EF20B027B9A027
:102C0000930784FE138737000D46C5679385C72E4B
:102C10003A85EFB0901CAA8795EB03A701878947F7
:102C20006306F702054723A8E18613850198EF2084
:102C3000605EAA872322F4FE930744FE81463E8607
:102C40009385C19913850198EF20D02213850198AF
:102C5000EF20404C05472386E1860100F2406244A4
:102C600005618280011106CE22CC0010A30704FE6C
:102C7000A30704FE29AC0347F4FE0A079387C1AA01
:102C8000BA979C4305476389E70881CB0947638C62
:102C9000E7100D476380E71AF5A20347F4FEC96702
:102CA0000A079387878EBA979C433E85EFD03FC62D
:102CB000AA873E8785476300F71C8347F4FE9396F7
:102CC00027001387C1A93697184393061700139658
:102CD00027001387C1A9329714C31397270093873E
:102CE000C1A9BA97984383A78187A946B3D7F602AB
:102CF000636BF7000347F4FE0A079387C1AABA97EC
:102D0000094798C38DAA0347F4FE0A079387C1AA0F
:102D1000BA97054798C385A20347F4FEC9670A0717
:102D20009387878EBA979C433E85EFD05FBEAA8774
:102D30003E8785476308F7048347F4FE9396270090
:102D40001387C1A9369718439306170013962700D7
:102D50001387C1A9329714C3139727009387C1A97A
:102D6000BA97984383A78187A946B3D7F6026366CB
:102D7000F7100347F4FE0A079387C1AABA970947D9
:102D800098C3E5A80347F4FE0A079387C1AABA9738
:102D900023A007000347F4FE0A079387C1A9BA9747
:102DA00023A00700D9A88347F4FE93962700138732
:102DB000C1A9369718439306170013962700138767
:102DC000C1A9329714C3139727009387C1A9BA9753
:102DD000984383A781879306803EB3D7F602636A40
:102DE000F7000347F4FE0A079387C1AABA970D4775
:102DF00098C30347F4FEC9670A079387878EBA977B
:102E00009C433E85EFD0BFB0AA873E8785476318B5
:102E1000F7060347F4FE0A079387C1AABA9723A0CF
:102E200007000347F4FE0A079387C1A9BA9723A0B6
:102E30000700B1A00347F4FEC9670A079387878E8E
:102E4000BA979C433E85EFD09FACAA873E878547C3
:102E50006319F7020347F4FE0A079387C1AABA97DA
:102E600023A007000347F4FE0A079387C1A9BA9776
:102E700023A0070039A0010031A0010021A001001A
:102E800011A001008347F4FE8507A307F4FE034762
:102E9000F4FE8D47E3F1E7DE0100F2406244056194
:102EA0008280011122CE00102326A4FE0327C4FE37
:102EB0000A079387C1AABA979C433E85724405616D
:102EC0008280797106D622D40018232EA4FC832791
:102ED000C4FDB337F00093F7F70F3E871306500C8D
:102EE000C5679385873D3A85EF10D076A30704FE2A
:102EF000A30704FE2DA80347F4FEC9670A079387BA
:102F0000878EBA979C4393068004054681453E858B
:102F1000EFD01FA40347F4FE0A079387C1AABA970C
:102F200023A007008347F4FE8507A307F4FE0347A9
:102F3000F4FE8D47E3F1E7FC0327C4FD23ACE186F3
:102F40000100B250225445618280397106DE22DCD4
:102F500080002326A4FC8547A307F4FE231604FE65
:102F6000232404FE232E04FC83D781883E87930705
:102F700000236316F700A5472324F4FE29A0A147E8
:102F80002324F4FE01008DA8930750FA2300F4FED9
:102F9000832784FE8A070327C4FCBA978397070018
:102FA00093F7F70FA300F4FE832784FE8A07032715
:102FB000C4FCBA97839727002313F4FE835764FE5B
:102FC000A183C207C18393F7F70F2301F4FE835750
:102FD00064FE93F7F70FA301F4FE930704FE114676
:102FE000BE851145EFF08FAD0945EFD0CFBD8327EA
:102FF00084FEFD172324F4FE032784FE9307E00FCD
:10300000E3F4E7F813854196EF20C0202A8789472B
:1030100063FFE7028D47232EF4FC1307C4FD9307DB
:1030200004FE81463A86BE8513854196EF20806472
:10303000034714FE9307F00F6308F700034724FECD
:103040009307F00F6315F700A30704FE31A80545A9
:10305000EFD06FB78357C4FE138717002316E4FE23
:103060001307F007E370F7FA8347F4FE3E85F2504A
:10307000625421618280397106DE22DC80002326C1
:10308000A4FCA30704FE231604FE232404FE232E1F
:1030900004FC83D781883E87930700236316F700DB
:1030A000A5472324F4FE29A0A1472324F4FE010010
:1030B000832784FEFD172324F4FE29A203D78188E9
:1030C0009307F02263EDE700832784FE8A07032736
:1030D000C4FCBA9703970700A547630FF70C930743
:1030E00050FA2300F4FEC557A300F4FE832784FEA4
:1030F0008A070327C4FCBA97839707002313F4FEBB
:10310000835764FEA183C207C18393F7F70F23019E
:10311000F4FE835764FE93F7F70FA301F4FE9307C1
:1031200004FE1146BE851145EFF04F99231604FEAB
:1031300013854196EF20000E2A87894763F7E7043D
:103140008D47232EF4FC1307C4FD930704FE81462C
:103150003A86BE8513854196EF20C051834714FE01
:10316000A20793960701C186834724FE13970701A0
:103170004187832784FE8A070326C4FCB297558FB4
:10318000420741872391E70031A80545EFD0AFA35F
:103190008357C4FE138717002316E4FE1307F007B6
:1031A000E378F7F80357C4FE9307000863F7E700D6
:1031B0008547A307F4FE19A80100832784FEFD17A5
:1031C0002324F4FE832784FEE39A07EE8347F4FE6C
:1031D0003E85F250625421618280011106CE22CCDC
:1031E0000010A30704FE9307F4FEBE851145EFF01F
:1031F0006FA10347F4FE9307500A6316F700138587
:103200004196EF1030718347F4FEBE8513854196D9
:10321000EF2080040100F240624405618280411188
:1032200022C6000805472380E1880100324441019D
:103230008280011106CE22CC0010231704FE231633
:1032400004FE232004FE930750FA2302F4FEC55720
:10325000A302F4FE9307200F2315F4FE8357A4FE68
:10326000A183C207C18393F7F70F2303F4FE8357AB
:10327000A4FE93F7F70FA303F4FE930744FE114651
:10328000BE851145EFF08F8313854196EF1090783E
:103290002A87894763F0E7048D472320F4FE13074C
:1032A00004FE930744FE81463A86BE851385419607
:1032B000EF20403C834754FEA20713970701418744
:1032C000834764FEC207C187D98FC207C18723160F
:1032D000F4FE31A80545EFD00F8F8357E4FE138726
:1032E00017002317E4FE1307F007E37FF7F883576F
:1032F000C4FE3E85F240624405618280397106DE7B
:1033000022DC8000A30704FE054723A2E18893077F
:10331000C4FD1307C004930620061306401F814511
:103320003E85EFE02FFA1305800CEFD0CF8913070D
:10333000C4FDB7070020938507073A85EF70700238
:10334000AA87638A070C23A20188916793862706C0
:1033500091671386C7048967938507581145EFF075
:103360004F9085451145EFF0AF811305800CEFD0EC
:103370008F85B73700001386E721B73700009385A4
:10338000A71D0D45EF009076EFF04FE85D35AA8759
:103390003E872394E188B707002013850707EFF0E5
:1033A000DFBAAA878DCB9306701BC5671386874249
:1033B000C567938507480145EF10503001468145A8
:1033C0000145EF00B07281451145EFE07FFB854775
:1033D000A307F4FE89A0B707002013858709EFF043
:1033E0009FC9AA878DCB9306401CC5671386874269
:1033F000C5679385C7490145EF10502C01468145AB
:103400000145EF00B06E81451145EFE07FF785473C
:10341000A307F4FE0100B73700001386E721B73792
:1034200000009385A71D0D45EF00506C91473EC4E9
:1034300095473EC299473EC0930890021308800208
:10344000930760021307B0049306900413068004E8
:10345000A9452545EFD04F8185468D671386873670
:103460008145B70700201385C76EEFD00F908347C3
:10347000F4FE3E85F250625421618280011106CE35
:1034800022CC0010AA87A307F4FEB7070020938779
:10349000C704DC4713070008D8CB8347F4FEBE857A
:1034A0000545EFE04FEDB70700209387C704DC47E1
:1034B0001307000898CB0100F24062440561828046
:1034C000011106CE22CC0010AA8736872317F4FEFE
:1034D000AE872316F4FEB2872315F4FEBA872314B1
:1034E000F4FE83C7C180C207C1830357E4FEB3372C
:1034F000F70093F7F70F3E871306A008C56793857B
:10350000874B3A85EF10101583C7D180C207C1835E
:103510000357C4FEB337F70093F7F70F3E87130640
:10352000B008C5679385874B3A85EF10B01283C703
:10353000C180C207C1830357A4FEB337F70093F7D6
:10354000F70F3E871306C008C5679385874B3A85FA
:10355000EF10501083C7D180C207C183035784FE88
:10356000B337F70093F7F70F3E871306D008C56708
:103570009385874B3A85EF10F00D83A7C1880547E7
:103580006376F7000D476369F71061A01305A00289
:10359000F53581450545EFE00FDE8357E4FE93F7EF
:1035A000F70F890793F7F70FBE850545EFE0AFDC0E
:1035B00081450545EFE02FDC8357A4FE93F7F70F15
:1035C000890793F7F70FBE850545EFE0CFDA1305BE
:1035D000B0026D3581450545EFE0EFD98357C4FE54
:1035E00093F7F70F850793F7F70FBE850545EFE0D3
:1035F0008FD881450545EFE00FD8835784FE93F7B8
:10360000F70F850793F7F70FBE850545EFE0AFD6B7
:1036100061A01305A0029D3581450545EFE0AFD5BA
:103620008357E4FE93F7F70F850793F7F70FBE85EF
:103630000545EFE04FD481450545EFE0CFD38357F3
:10364000A4FE93F7F70F850793F7F70FBE8505459F
:10365000EFE06FD21305B002153581450545EFE067
:103660008FD18357C4FE93F7F70F890793F7F70FAE
:10367000BE850545EFE02FD081450545EFE0AFCF92
:10368000835784FE93F7F70F890793F7F70FBE85EB
:103690000545EFE04FCE01001305C002C533010020
:1036A000F240624405618280797106D622D4001806
:1036B0009307C4FD3E85EF1050058547231EF4FC9B
:1036C00083C7C180C207C183231FF4FC83C7D18095
:1036D000C207C1832310F4FE83A781800547638A54
:1036E000E70099EF99472301F4FEA147A301F4FEF7
:1036F00009A8A1472301F4FEC147A301F4FE11A0CC
:103700000100B7470000938707BA2324F4FEB737B8
:1037100000009387E7722326F4FE9307C4FD3E85DD
:10372000EF1050040100B250225445618280011113
:1037300006CE22CC001083C7C1803E8783C7D180CC
:10374000B307F7022326F4FEB70700209387C704C8
:10375000DC474147D8CB83C7C180C207C183FD176F
:1037600013970701418383C7D180C207C183FD1727
:10377000C207C183BE863A8681450145EFF05FD41A
:1037800031A8B707002083D74743BE850545EFE042
:103790002FC58327C4FEFD172326F4FE8327C4FE0E
:1037A000EDF3B70700209387C704DC47414798CB68
:1037B0000100F240624405618280797106D622D40C
:1037C0000018AA87231FF4FC83C7C1803E8783C7E4
:1037D000D180B307F7022326F4FEB70700209387B2
:1037E000C704DC474147D8CB83C7C180C207C18328
:1037F000FD1713970701418383C7D180C207C18397
:10380000FD17C207C183BE863A8681450145EFF0A8
:103810003FCB21A88357E4FDBE850545EFE04FBCB3
:103820008327C4FEFD172326F4FE8327C4FEFDF381
:10383000B70700209387C704DC47414798CB0100B6
:10384000B250225445618280011122CE00102326FD
:10385000A4FE0327C4FE23A6E18883A7C1880547E9
:103860006376F7000D476365F70211A8130700F8A8
:103870002386E180130700FAA386E18011A81307CD
:1038800000FA2386E180130700F8A386E180010097
:103890000100724405618280011122CE00102326AE
:1038A000A4FE0327C4FE23A4E18001007244056145
:1038B0008280011122CE0010AA872E872317F4FEE2
:1038C000BA872316F4FEB70700200357E4FE2399B6
:1038D000E742B70700200357C4FE239AE7420100DE
:1038E000724405618280797106D622D40018AA87B5
:1038F000AE863287231FF4FCB687231EF4FCBA87FA
:10390000A30DF4FC83C7C180C207C1830357E4FD44
:10391000B337F70093F7F70F3E8713069019C56783
:103920009385874B3A85EF10E05283C7D180C20759
:10393000C1830357C4FDB337F70093F7F70F3E87F2
:103940001306A019C5679385874B3A85EF10805001
:10395000A30704FE230704FEB70700209387C704CC
:10396000DC474147D8CB83A781800547638EE70CAE
:10397000639B0720A30704FED1A08347F4FE13979F
:10398000070141838357E4FDBA97139507014181ED
:103990008347F4FE1397070141838357E4FDBA97E9
:1039A0001397070141838357C4FDA107939607012D
:1039B000C1828357C4FD3A86BE85EFF07FB083078E
:1039C000B4FD138707FE8346F4FE4966BA8786076F
:1039D000BA978607130786EEBA97B69783C707008C
:1039E000A306F4FE230704FE81A08347D4FE858B43
:1039F00091CBB707002083D72743BE850545EFE06D
:103A00002F9E09A8B707002083D74743BE850545E9
:103A1000EFE00F9D8347D4FE8583A306F4FE834722
:103A2000E4FE85072307F4FE0347E4FE9D47E3FE1B
:103A3000E7FA8347F4FE8507A307F4FE0347F4FE85
:103A40009547E3FCE7F289A2A30704FE3DA2834762
:103A5000F4FE1397070141838357E4FDBA9713954A
:103A6000070141818347F4FE139707014183835780
:103A7000E4FDBA971397070141838357C4FDBD073F
:103A800093960701C1828357C4FD3A86BE85EFF045
:103A90003FA38307B4FD938607FE8347F4FE49677F
:103AA00092061307878F3697BA9783C707002306B6
:103AB000F4FE8307B4FD938607FE8347F4FEA10757
:103AC000496792061307878F3697BA9783C707000F
:103AD000A305F4FE230704FE81A08347C4FE858B63
:103AE00091CBB707002083D72743BE850545EFE07C
:103AF0002F8F09A8B707002083D74743BE85054508
:103B0000EFE00F8E8347C4FE85832306F4FE8347D0
:103B1000E4FE85072307F4FE0347E4FE9D47E3FE2A
:103B2000E7FA230704FE81A08347B4FE858B91CB7F
:103B3000B707002083D72743BE850545EFE04F8AAE
:103B400009A8B707002083D74743BE850545EFE0A6
:103B50002F898347B4FE8583A305F4FE8347E4FEE3
:103B600085072307F4FE0347E4FE9D47E3FEE7FADB
:103B70008347F4FE8507A307F4FE0347F4FE9D4741
:103B8000E3F7E7EC11A00100B70700209387C70413
:103B9000DC47414798CB0100B250225445618280F6
:103BA000797106D622D40018AA872E87232CC4FC4C
:103BB000231FF4FCBA87231EF4FC83C7C180C2070D
:103BC000C1830357E4FDB337F70093F7F70F3E8740
:103BD0001306D01EC5679385874B3A85EF10802763
:103BE00083C7D180C207C1830357C4FDB337F70031
:103BF00093F7F70F3E871306E01EC5679385874B43
:103C00003A85EF102025231704FE71A083A7818039
:103C100005476381E704B5EB0357E4FEBA878607DF
:103C2000BA9786071397070141838357E4FDBA9734
:103C300093960701C1828357E4FE032784FDBA9758
:103C4000038707008357C4FD3A86BE853685EFF0AB
:103C50009FC92DA88357E4FE8E0713970701418360
:103C60008357E4FDBA9793960701C1828357E4FE18
:103C7000032784FDBA97038707008357C4FD3A865C
:103C8000BE853685EFF03FC611A001008357E4FEE4
:103C900085072317F4FE8357E4FE032784FDBA97B4
:103CA00083870700A5F70100B25022544561828046
:103CB0005D7186C6A2C4A6C280082328C4FA232A3E
:103CC000D4FABA863E87AA87231FF4FAAE87231E4A
:103CD000F4FAB687A30DF4FABA87230DF4FA83C772
:103CE000C180C207C1830357E4FBB337F70093F7E2
:103CF000F70F3E871306C025C5679385874B3A8526
:103D0000EF10401583C7D180C207C1830357C4FB9E
:103D1000B337F70093F7F70F3E871306D025C56733
:103D20009385874B3A85EF10E0128347B4FBB33796
:103D3000F00093F7F70F3E871306E025C5679385DC
:103D4000874B3A85EF1000118347B4FB93B7970078
:103D500093F7F70F3E871306F025C5679385874BCA
:103D60003A85EF10200F8347A4FBB337F00093F799
:103D7000F70F3E8713060026C5679385874B3A8564
:103D8000EF10400D8347A4FB93B7770093F7F70F2D
:103D90003E8713061026C5679385874B3A85EF103B
:103DA000600B832704FB032844FB2320F4FE23221B
:103DB00004FFC56703A8475183A707512324F4FED6
:103DC000232604FF9307C4FC454681453E85EFC08A
:103DD0002FC30347B4FB8347A4FBBA9789073E87E9
:103DE0009307C4FC3A86930500023E85EFC04FC19D
:103DF0003DA0C56703A6875183A6C751032584FE4E
:103E00008325C4FEEF80C075AA872E882324F4FE84
:103E1000232604FF8347B4FBFD17A30DF4FA834761
:103E2000B4FBE1FB032504FE832544FEEF9030093B
:103E3000AA84032584FE8325C4FEEF905008AA8738
:103E4000B3C7F4023E85EF90F01EAA872E880326A2
:103E500084FE8326C4FE3E85C285EF806070AA87FB
:103E60002E883E86C286032504FE832544FEEF800D
:103E70009054AA872E882320F4FE232204FF0347B0
:103E8000A4FB9307C4FCBA86832504FE032644FEE4
:103E90003E85EF1090359306C4FC0357C4FB83574F
:103EA000E4FB3686BA853E85EFF09FCF0100B64031
:103EB0002644964461618280411106C622C40008EE
:103EC0001308F00FC167F91705671307F702856636
:103ED0009386D60237A64A04130606208145054577
:103EE000EFD07FDAC1460146854513057006EFC065
:103EF0003FA6C1460146854513057002EFC05FA588
:103F0000C1460546854513054006EFC07FA4C1465E
:103F10000546854513050006EFC09FA383A7C1880A
:103F20003E85EFF07F92B707002003D72743B707FE
:103F3000002083D74743BE853A85EFF09F97B707A8
:103F400000209387C704DC4313070008D8CB29451A
:103F5000EFC06FC7B70700209387C704DC43130780
:103F6000000898CB13058007EFC0EFC5B707002006
:103F70009387C704DC474147D8CB4545EFF00FD0C6
:103F800013058007EFC02FC41305100BEFF00FCF00
:103F900085450545EFD03FBE9305C0020545EFD0EE
:103FA0009FBD9305D0020545EFD0FFBC1305200B44
:103FB000EFF0CFCC85450545EFD0FFBB9305C002A0
:103FC0000545EFD05FBB9305D0020545EFD0BFBAE2
:103FD0001305300BEFF08FCA85450545EFD0BFB90B
:103FE0009305C0020545EFD01FB99305D0020545E2
:103FF000EFD07FB885450545EFD0FFB79305C002E8
:104000000545EFD05FB79305D0020545EFD0BFB6A9
:104010001305400BEFF08FC69D450545EFD0BFB5AA
:104020001305000CEFF08FC59305200A0545EFD06E
:104030009FB489450545EFD01FB493054008054559
:10404000EFD07FB31305100CEFF04FC39305500C66
:104050000545EFD05FB21305200CEFF02FC2A94544
:104060000545EFD05FB181450545EFD0DFB01305C1
:10407000300CEFF0AFC09305A0080545EFD0BFAFFF
:104080009305A0020545EFD01FAF1305400CEFF0DC
:10409000EFBE9305A0080545EFD0FFAD9305E00EF8
:1040A0000545EFD05FAD1305500CEFF02FBDB945BE
:1040B0000545EFD05FAC13056003EFF02FBC83A77D
:1040C000C18805476380E70281CB09476381E70226
:1040D0000D476384E70205A89305000C0545EFD062
:1040E0009FA915A081450545EFD0FFA829A89305F4
:1040F000000A0545EFD03FA839A093050006054505
:10410000EFD07FA701001305000EEFF02FB7BD45DC
:104110000545EFD05FA6E9450545EFD0DFA5BD45D4
:104120000545EFD05FA5E1450545EFD0DFA4930538
:10413000F0020545EFD03FA4930580020545EFD07E
:104140009FA3930500020545EFD0FFA2930520022F
:104150000545EFD05FA2FD450545EFD0DFA1ED4558
:104160000545EFD05FA1930530020545EFD0BFA014
:10417000930570030545EFD01FA081450545EFD09D
:104180009F9F9D450545EFD01F9F89450545EFD071
:104190009F9EC1450545EFD01F9E1305100EEFF001
:1041A000EFADBD450545EFD01F9DED450545EFD071
:1041B0009F9CBD450545EFD01F9CDD450545EFD0D3
:1041C0009F9B930530030545EFD0FF9A9305C002EE
:1041D0000545EFD05F9A930590020545EFD0BF9952
:1041E0009305E0020545EFD01F99930500030545AF
:1041F000EFD07F98930500030545EFD0DF97930537
:1042000090030545EFD03F979305F0030545EFD0A8
:104210009F9681450545EFD01F969D450545EFD0FA
:104220009F958D450545EFD01F95C1450545EFD0BC
:104230009F941305A002EFF06FA481450545EFD0D0
:104240009F9389450545EFD01F9381450545EFD0E4
:104250009F92930520080545EFD0FF911305B0020A
:10426000EFF0CFA181450545EFD0FF908D45054585
:10427000EFD07F9081450545EFD0FF8F9305300843
:104280000545EFD05F8F1305000FEFF02F9F854599
:104290000545EFD05F8E1305600FEFF02F9E81452F
:1042A0000545EFD05F8D1305A003EFF02F9D9545D9
:1042B0000545EFD05F8C13059002EFF02F9CB707F8
:1042C00000209387C704DC47414798CBEFF02FC607
:1042D000EFF08FBD0100B2402244410182804111C4
:1042E00022C600080100324441018280011122CE21
:1042F00000102326A4FE2324B4FE2322C4FE032799
:10430000C4FE23A8E188832744FE81C7832744FE97
:1043100029A0B74700009387E72D23AAF1808327C0
:1043200084FE81C7832784FE29A0B74700009387B6
:10433000E72D23A8F18001007244056182800111FC
:1043400022CE00102326A4FE2324B4FE0327C4FE9D
:1043500023AAE188832784FE81C7832784FE29A0BE
:10436000B74700009387E72D23ACF180010072442A
:1043700005618280797106D622D40018232EA4FC10
:10438000232CB4FC8327C4FDB337F00093F7F70F59
:104390003E8713062006C567938507523A85EF00CE
:1043A000702B231704FEBDA013058008EFC02FD685
:1043B000AA87B9E3032784FDF54763F5E702794649
:1043C0008325C4FD1945EFD07FEF8327C4FDF9078E
:1043D000232EF4FC832784FD8917232CF4FC231758
:1043E00004FE0DA8032684FD8325C4FD1945EFD0E6
:1043F000FFEC232C04FC25A08357E4FE850723173C
:10440000F4FE0357E4FE9307300663E9E700054531
:10441000EFB07FFB832784FDC1FB11A00100832740
:1044200084FD3E85B250225445618280797106D662
:1044300022D40018232EA4FC232CB4FC8327C4FD13
:10444000B337F00093F7F70F3E871306600CC5678C
:10445000938507523A85EF00F01F832784FD2326BA
:10446000F4FE9307C4FE81463E868325C4FDB7470C
:104470000020138547A5EF10E01F8327C4FE3E856B
:10448000B250225445618280411106C622C4000800
:10449000938581891945EFD0FFF60546938581897B
:1044A000B7470020138547A5EF00906C0100B2408C
:1044B000224441018280011106CE22CC0010A307C4
:1044C00004FEB7470000938587480545EFF03FE7B6
:1044D00093060004B7470020138607A78145B74716
:1044E0000020138547A5EF10E0469306800405469B
:1044F000814513058008EFC0AFC599679386D7380B
:1045000099671386C738F167938507201945EFD05F
:104510005FF585451945EFD0BFE68347F4FE3E853C
:10452000F240624405618280411122C60008B7173B
:1045300002409843B71702401367170098C3B71794
:104540000240D443B71702403707FFF8758FD8C32E
:10455000B71702409443B71702403707F7FE7D179D
:10456000758F98C3B71702409443B71702403707B7
:10457000FCFF7D17758F98C3B7170240D443B71758
:104580000240370781FF7D17758FD8C3B7170240E8
:1045900037079F0098C7010032444101828079713A
:1045A00006D622D40018232EA4FCEFF0FFF7232612
:1045B00004FE232404FEB71702409443B7170240B9
:1045C0004167558F98C3B71702409843B707020059
:1045D000F98F2324F4FE8327C4FE85072326F4FEE7
:1045E000832784FE91E70327C4FE8567E31DF7FC5C
:1045F000B71702409843B7070200F98F89C785476C
:104600002324F4FE19A0232404FE032784FE8547F7
:104610006312F71637170240B71702405843D8C342
:1046200037170240B71702405843D8C33717024024
:10463000B71702405843D8C3B7170240D443B7173F
:1046400002403707C1FF7D17758FD8C30327C4FD0C
:10465000B747950893870740631BF700B7170240D9
:10466000D443B71702404167558FD8C355A80327D5
:10467000C4FDB7172707938707E0631CF700B71738
:104680000240D443B717024037073900558FD8C3CB
:1046900041A80327C4FDB7E7B80593870780631CCB
:1046A000F700B7170240D443B71702403707290075
:1046B000558FD8C3B5A00327C4FDB7A74A04938775
:1046C0000720631CF700B7170240D443B717024016
:1046D00037071D00558FD8C3A1A00327C4FDB777A6
:1046E000DC02938707C0631CF700B7170240D4436E
:1046F000B717024037071100558FD8C315A00327FD
:10470000C4FDB7376E0193870760631BF700B717C7
:104710000240D443B717024037070500558FD8C36E
:10472000B71702409443B717024037070001558F6F
:1047300098C30100B71702409843B7070002F98FEA
:10474000F5DBB7170240D843B7170240719BD8C3B7
:10475000B7170240D843B717024013672700D8C3E2
:104760000100B7170240DC4313F7C700A147E31A63
:10477000F7FE11A001A0B2502254456182800111C0
:1047800006CE22CC00102326A4FE0327C4FE23A0BD
:10479000E182EFF07FD90325C4FEEFF05FE0EF1078
:1047A000C0660100F240624405618280411122C668
:1047B000000801000100324441018280011106CE4F
:1047C00022CC0010232604FE232404FE232604FE0C
:1047D0002DA0232404FE01A8EFF05FFD832784FEB3
:1047E00085072324F4FE032784FEC167E366F7FEF2
:1047F0008327C4FE85072326F4FE0327C4FE930700
:10480000F00FE3F8E7FC0100F240624405618280AA
:10481000411122C600080100324441018280011189
:1048200006CE22CC00102326A4FE8325C4FE094513
:10483000EFD01FAF0100F240624405618280130196
:1048400001D9232611262324812623229126801C88
:10485000232EA4D8232CB4D8232AC4D82328D4D8D0
:10486000231504FE231404FE231304FE231204FE66
:10487000231104FE032584D9EF901055AA87C2079F
:10488000C1872313F4FEB747002083D7C7B099C769
:10489000B74700209387C7B09C4B829783C7A189F5
:1048A00093F7F70F6385074EB747002083D7C7B04C
:1048B00063890746B74700209387C7B0D44783571B
:1048C00024FE13970701418793170701C1838507CA
:1048D000C207C183C207C1872311F4FE93170701E2
:1048E000C1830326C4D9BE8501458296832784D916
:1048F0002326F4FE032584D9EF90104DAA87C20722
:10490000C1872313F4FEB74700209387C7B083D72E
:1049100027003E87B74700209387C7B083C767004B
:10492000B347F702C207C1872312F4FE01008327B1
:10493000C4FE138717002326E4FE83870700E5FBE8
:10494000231404FEA1A88327C4FEFD172326F4FE2A
:104950008327C4FE038707009307F002630AF7006A
:104960008327C4FE038707009307C005631BF70076
:10497000835784FEC207C1838507C207C1832314FE
:10498000F4FE835764FEC207C187C207C183FD17C7
:10499000C207C183C207C1872313F4FE835784FE75
:1049A000139707014183854763E8E700835764FE57
:1049B000C207C187E3D907F8835764FEC207C187DE
:1049C00063C207028327C4FE85072326F4FE13076C
:1049D00004EE0326C4FEC5679385C7573A85EF905A
:1049E000503A1DA8835784FEC207C18381EF130785
:1049F00004EE0326C4FEC567938587583A85EF9079
:104A0000503819A8130704EE0326C4FEC567938522
:104A1000C7573A85EF90F036231504FE05A22314FC
:104A200004FE59A0930704EE3E85EF90F0392A87E3
:104A3000835784FEC207C183BE868357A4FEC20784
:104A4000C1833E86835744FEC207C187B307F6027F
:104A5000B6976367F706835784FEC207C1833E8714
:104A60008357A4FEC207C183BE86835744FEC20794
:104A7000C187B387F602BA97035784FE4207418382
:104A8000BA86130704FFBA97038707EF930704FF5B
:104A9000B6972388E7EA835784FEC207C183850758
:104AA000C207C1832314F4FE835784FEC207C18367
:104AB0003E87835744FEC207C187E345F7F611A03E
:104AC0000100835784FEC207C183130704FFBA970E
:104AD000238807EAB74700209387C7B003A8C70019
:104AE000B74700209387C7B083C7770013970701A4
:104AF0004183835724FE93960701C186939706014D
:104B0000C1838507C207C183C207C1872311F4FE91
:104B100093970601C183B307F702C207C183130746
:104B200004EA3A86BE85014502988357A4FEC2076F
:104B3000C1838507C207C1832315F4FE8357A4FEF2
:104B4000C207C183BE84930704EE3E85EF90D02751
:104B50002A87835744FEC207C187B357F7028507E8
:104B6000E3EFF4EA130704EE032644D9C5679385FF
:104B700087593A85EF90F020B74700209387C7B058
:104B800003A8C700B74700209387C7B083C7770043
:104B9000139707014183835724FE93960701C1862B
:104BA00093970601C1838507C207C183C207C187E6
:104BB0002311F4FE93970601C183B307F702C207DE
:104BC000C183130704EE3A86BE8501450298832708
:104BD00004D9638E071A231504FE05A2231404FECC
:104BE00059A0032504D9EF90301E2A87835784FEED
:104BF000C207C183BE868357A4FEC207C1833E8617
:104C0000835744FEC207C187B307F602B6976368AD
:104C1000F706835784FEC207C1833E878357A4FEED
:104C2000C207C183BE86835744FEC207C187B387CC
:104C3000F602BA973E87832704D9BA97035784FEB2
:104C400042074183BA8603870700930704FFB6979C
:104C50002388E7EA835784FEC207C1838507C2071A
:104C6000C1832314F4FE835784FEC207C1833E87A9
:104C7000835744FEC207C187E345F7F611A0010040
:104C8000835784FEC207C183130704FFBA972388A2
:104C900007EAB74700209387C7B003A8C700B74704
:104CA00000209387C7B083C777001397070141831C
:104CB000835724FE93960701C18693970601C1830B
:104CC0008507C207C183C207C1872311F4FE9397EA
:104CD0000601C183B307F702C207C183130704EAC1
:104CE0003A86BE85014502988357A4FEC207C18358
:104CF0008507C207C1832315F4FE8357A4FEC207AC
:104D0000C183BE84032504D9EF90100C2A878357F2
:104D100044FEC207C187B357F7028507E3E0F4EC0E
:104D2000BDA0930704DA1306001081453E85EFB05D
:104D30002FCDB74700209387C7B09C470325C4D920
:104D40008297832704D999CF130504DA032704D95E
:104D5000832644D9032684D9C5679385475AEF90A3
:104D6000500229A8130704DA832644D9032684D9DC
:104D7000C5679385075C3A85EF90B000B747002080
:104D80009387C7B09847930704DA3E8502970100DE
:104D90008320C12603248126832441261301012771
:104DA0008280411106C622C4000883C7A18993F7F7
:104DB000F70F91CF938591890945EFD0AFE4054670
:104DC00093859189B7470020138507AF55230100CC
:104DD000B240224441018280797106D622D4001863
:104DE000232EA4FC232CB4FC232AC4FC232604FE7B
:104DF000A9A00100C9679387878C9C47930500048D
:104E00003E85EF40200EAA87F5D7C9679387878C28
:104E10009C47BE86832784FD13871700232CE4FC60
:104E200083870700C207C183BE853685EF40A0088F
:104E30008327C4FE85072326F4FE0327C4FE8327A9
:104E400044FDE348F7FA832744FD3E85B2502254DF
:104E500045618280011106CE22CC0010AA8723244E
:104E6000B4FE2322C4FEA307F4FE8347F4FEB1E39D
:104E700083C7418293F7F70F8DCF83C7B18991C361
:104E800001A083C7B189850713F7F70FA38DE188C8
:104E9000EF00F074EFF0DF978146032644FE832590
:104EA00084FEC5671385875DEFF07F99EFF01F9152
:104EB000E5B70100F240624405618280011106CE2F
:104EC00022CC0010AA872324B4FE2322C4FE232070
:104ED000D4FEA307F4FE8347F4FE95E383C7A189BC
:104EE00093F7F70F91CF832684FE032604FE8325D4
:104EF00044FEC5671385875EEFF07F9411A0010023
:104F00000100F240624405618280011122CE00104E
:104F10002326A4FE8327C4FE239007008327C4FE14
:104F20007D572391E7008327C4FE7D572392E70036
:104F30008327C4FE7D572383E7008327C4FE7D5764
:104F4000A383E7008327C4FE23A407008327C4FEAE
:104F500023A607008327C4FE23A80700010072448C
:104F600005618280011122CE00102326A4FE832732
:104F7000C4FE03D70700B74700202396E7B0832776
:104F8000C4FE03D72700B74700209387C7B02391FB
:104F9000E7008327C4FE03D74700B7470020938765
:104FA000C7B02392E7008327C4FE03C76700B74753
:104FB00000209387C7B02383E7008327C4FE03C77D
:104FC0007700B74700209387C7B0A383E700832704
:104FD000C4FE9847B74700209387C7B098C7832778
:104FE000C4FED847B74700209387C7B0D8C78327E8
:104FF000C4FE984BB74700209387C7B098CB0547AE
:10500000238DE1880100724405618280797106D6A2
:1050100022D400189307C4FD3E85EFF01FEFB75769
:1050200000009387E7812322F4FE9307C4FD3E85A9
:10503000EFF05FF389679386B70289671386A7024B
:10504000F167938507200945EFD0AFC193060004AF
:10505000B7470020138607AB8145B747002013856B
:1050600007AFEF00300F85450945EFD06FB1010064
:10507000B250225445618280011122CE00102326B5
:10508000A4FE2324B4FE8327C4FED847832784FECE
:105090003E978327C4FED8C719A88327C4FED847E4
:1050A0008327C4FE9C4F1D8F8327C4FED8C7832748
:1050B000C4FE984F8327C4FEDC47E3F0E7FE0100FF
:1050C000724405618280011122CE00102326A4FEC5
:1050D0002324B4FE8327C4FE984B832784FE3E9787
:1050E0008327C4FE98CB19A88327C4FE984B832737
:1050F000C4FE9C4F1D8F8327C4FE98CB8327C4FE1C
:10510000984F8327C4FE9C4BE3F0E7FE01007244F6
:1051100005618280797106D622D40018232EA4FC62
:105120008327C4FDB337F00093F7F70F3E871306CC
:105130004005C5679385475F3A85EFF0BFD12326C9
:1051400004FE8327C4FD83C70700858B93F7F70F01
:1051500089C789472326F4FE7DA08327C4FD83C722
:10516000070093E7170013F7F70F8327C4FD238089
:10517000E7008327C4FD23A607008327C4FD23A8D7
:1051800007008327C4FD984F8327C4FDD8CB83270E
:10519000C4FDDC4305476383E70289C70947638C85
:1051A000E702B9A08327C4FD98478327C4FD9C4F1D
:1051B0003E8681453A85EFB0AF841DA88327C4FDA4
:1051C00098478327C4FD9C4F86073E8681453A85D4
:1051D000EFB00F8331A88327C4FD98478327C4FD10
:1051E0009C4F8A073E8681453A85EFB06F8101006A
:1051F0008327C4FD83C70700F99B13F7F70F8327A5
:10520000C4FD2380E7008327C4FE3E85B2502254AC
:1052100045618280011106CE22CC00102326A4FE17
:105220008327C4FEB337F00093F7F70F3E871306CA
:10523000C007C5679385475F3A85EFF0BFC18327F5
:10524000C4FE984F8327C4FEDC4BB307F7403E856E
:10525000F240624405618280797106D622D400183A
:10526000232EA4FC232CB4FC8327C4FDB337F00009
:1052700093F7F70F3E871306A008C5679385475F2E
:105280003A85EFF03FBD232604FE8327C4FD83C784
:105290000700898B93F7F70F89C785472326F4FE0C
:1052A000C9A08327C4FD83C7070093E7270013F72E
:1052B000F70F8327C4FD2380E7008327C4FDDC4B61
:1052C000D9C38327C4FDDC4305476385E70289C74B
:1052D00009476380E70491A88327C4FD9847832783
:1052E000C4FDDC47BA97032784FD1377F70F2380AB
:1052F000E70025A88327C4FD98478327C4FDDC4722
:105300008607BA97032784FD420741832390E7006D
:1053100029A88327C4FD98478327C4FDDC478A0753
:10532000BA97032784FD98C3010085450325C4FD72
:10533000EFF09FD48327C4FDDC4B1387F7FF83274F
:10534000C4FDD8CB21A091472326F4FE8327C4FDBA
:1053500083C70700F59B13F7F70F8327C4FD23804E
:10536000E7008327C4FE3E85B25022544561828007
:10537000797106D622D40018232EA4FC232CB4FC69
:10538000232AC4FC8327C4FDB337F00093F7F70F3B
:105390003E871306C00BC5679385475F3A85EFF0DC
:1053A0007FAB232604FE232404FE832784FD89E7A4
:1053B0008D472326F4FE45AC8327C4FD83C7070031
:1053C000898B93F7F70F89C785472326F4FE61ACD5
:1053D0008327C4FD83C7070093E7270013F7F70F60
:1053E0008327C4FD2380E7008327C4FDDC4B03270C
:1053F00044FD63ECE7248327C4FD984F8327C4FD55
:10540000DC47B307F7402324F4FE032744FD83273A
:1054100084FE63F2E7188327C4FDDC430547638FEE
:10542000E70689C709476389E70E31A48327C4FDCE
:1054300098478327C4FDDC47BA97032684FE83255B
:1054400084FD3E85EF804062832584FE0325C4FDF4
:10545000EFF09FC28327C4FD98478327C4FDDC4734
:10546000B306F700032784FD832784FEB305F70006
:10547000032744FD832784FEB307F7403E86368525
:10548000EF80805E032744FD832784FEB307F74047
:10549000BE850325C4FDEFF03FBE71AA8327C4FD7E
:1054A00098478327C4FDDC4786073E97832784FE01
:1054B00086073E86832584FD3A85EF80E05A832562
:1054C00084FE0325C4FDEFF03FBB8327C4FD98474E
:1054D0008327C4FDDC478607B306F700832784FED5
:1054E0008607032784FDB305F700032744FD8327C0
:1054F00084FEB307F74086073E863685EF80C056A8
:10550000032744FD832784FEB307F740BE850325A8
:10551000C4FDEFF07FB605A28327C4FD984783271B
:10552000C4FDDC478A073E97832784FE8A073E86B0
:10553000832584FD3A85EF802053832584FE03254F
:10554000C4FDEFF07FB38327C4FD98478327C4FDD4
:10555000DC478A07B306F700832784FE8A07032700
:1055600084FDB305F700032744FD832784FEB307BA
:10557000F7408A073E863685EF80004F032744FDBB
:10558000832784FEB307F740BE850325C4FDEFF0F3
:10559000BFAE01004DA08327C4FDDC430547638CEB
:1055A000E70289C709476380E70671A08327C4FD26
:1055B00098478327C4FDDC47BA97032644FD83251B
:1055C00084FD3E85EF80404A832544FD0325C4FDCC
:1055D000EFF09FAA8DA08327C4FD98478327C4FDC1
:1055E000DC4786073E97832744FD86073E86832552
:1055F00084FD3A85EF804047832544FD0325C4FDA3
:10560000EFF09FA70DA88327C4FD98478327C4FD0B
:10561000DC478A073E97832744FD8A073E86832519
:1056200084FD3A85EF804044832544FD0325C4FD75
:10563000EFF09FA401008327C4FDD84B832744FDCE
:105640001D8F8327C4FDD8CB21A091472326F4FECC
:105650008327C4FD83C70700F59B13F7F70F832744
:10566000C4FD2380E7008327C4FE3E85B250225448
:1056700045618280797106D622D40018232EA4FCBD
:10568000232CB4FC232AC4FC2328D4FC8327C4FD88
:10569000B337F00093F7F70F3E8713067016C56710
:1056A0009385475F3A85EFF0EFFA832744FDB337E0
:1056B000F00093F7F70F3E8713068016C5679385B2
:1056C000475F3A85EFF00FF9232604FE832784FD18
:1056D00089E78D472326F4FEA1AC8327C4FD83C749
:1056E000070093E7470013F7F70F8327C4FD2380D4
:1056F000E7000325C4FDEFF0FFB12324A4FE8327B8
:1057000044FD9C43032784FE637AF700832744FD0E
:10571000032784FE98C395472326F4FE8327C4FD00
:10572000984F8327C4FD9C4BB307F7402322F4FE18
:10573000832744FD9C43032744FE6365F7088327C2
:10574000C4FDDC4305476388E70289C709476387CF
:10575000E704BDA28327C4FD98478327C4FD9C4B63
:105760003E97832744FD9C433E86BA85032584FDEE
:10577000EF80802FB1A28327C4FD98478327C4FD03
:105780009C4B86073E97832744FD9C4386073E86B5
:10579000BA85032584FDEF80202D1DA28327C4FD3B
:1057A00098478327C4FD9C4B8A073E97832744FD77
:1057B0009C438A073E86BA85032584FDEF80C02A74
:1057C0000100FDA88327C4FDDC430547638AE70485
:1057D00089C70947638EE708E5A08327C4FD98477A
:1057E0008327C4FD9C4BBA97032644FEBE85032540
:1057F00084FDEF806027032784FD832744FEB306E2
:10580000F7008327C4FD8C47832744FD98438327F3
:1058100044FEB307F7403E863685EF80E0244DA076
:105820008327C4FD98478327C4FD9C4B86073E977A
:10583000832744FE86073E86BA85032584FDEF80D4
:10584000A022832744FE8607032784FDB306F700C2
:105850008327C4FD8C47832744FD9843832744FE58
:10586000B307F74086073E863685EF80E01F89A89C
:105870008327C4FD98478327C4FD9C4B8A073E9726
:10588000832744FE8A073E86BA85032584FDEF8080
:10589000A01D832744FE8A07032784FDB306F70073
:1058A0008327C4FD8C47832744FD9843832744FE08
:1058B000B307F7408A073E863685EF80E01A01007D
:1058C000832704FDB5E78327C4FD83C70700858BC5
:1058D00093F7F70F89C789472326F4FE91A88327FA
:1058E000C4FD83C7070093E7170013F7F70F83275B
:1058F000C4FD2380E700832744FD9C43BE85032528
:10590000C4FDEFF04FFC8327C4FDD84B832744FD33
:105910009C433E978327C4FDD8CB8327C4FD83C710
:105920000700F99B13F7F70F8327C4FD2380E700D7
:105930008327C4FD83C70700918B13F7F70F8327D5
:10594000C4FD2380E7008327C4FE3E85B250225465
:1059500045618280797106D622D40018232EA4FCDA
:10596000232CB4FC232AC4FC2328D4FC8327C4FDA5
:10597000B337F00093F7F70F3E8713068021C56712
:105980009385475F3A85EFF0EFCC232604FE83270B
:1059900044FD89E78D472326F4FE89A08327C4FDB3
:1059A000032744FD98C78327C4FD2380070083276E
:1059B000C4FD032784FDD8C38327C4FD23A60700A5
:1059C0008327C4FD23A807008327C4FD032704FD04
:1059D000D8CB8327C4FD032704FD98CF8327C4FEBB
:1059E0003E85B250225445618280197186DEA2DC68
:1059F00000012326A4F82320B4F82322C4F8B68794
:105A0000A305F4F88327C4F8B337F00093F7F70F32
:105A10003E871306301CC567938587643A85EFF08F
:105A20006FC3232604FE232404FE8347B4F8A30394
:105A3000F4FE8327C4F863850724032504F883252F
:105A400044F8EF70D047AA872326F4FE014681462A
:105A5000032504F8832544F8EF603025AA8763DD29
:105A600007008327C4F8138717002326E4F81307D9
:105A7000D0022380E700B1A001468146032504F847
:105A8000832544F8EF60900DAA8785EF8327C4F83B
:105A9000138717002326E4F8130700032380E70089
:105AA0008327C4F8138717002326E4F81307E002BE
:105AB0002380E7008327C4F8130700032380E7004F
:105AC000C9A20325C4FEEF70F056AA872E883E8631
:105AD000C286032504F8832544F8EF70C00DAA8719
